:100000000C94A3000C94C2000C94FC040C94C20049
:100010000C94C2000C94C2000C94C2000C94C20058
:100020000C94C2000C94C2000C94C2000C94C20048
:100030000C94C2000C94C2000C94C2000C94C20038
:100040000C94C4000C94C2000C94C2000C94C20026
:100050000C94C2000C94C2000C94C2000C94C20018
:100060000C94C2000C94C2000C94C2000C94C20008
:100070000C94C2000C94C2000C94C2000C94C200F8
:100080000C94C2000C94C2000C94C2000540B5044C
:10009000F441A0000141E2463241A0000040E246A6
:1000A000303F8000000541778C4F40C32CE2411760
:1000B000BF24C1A48DD9C0E1D8A1C05B6782001F55
:1000C000000000001F00001F101010101F00001F74
:1000D000181818181F00001F1C1C1C1C1F00001FD4
:1000E0001E1E1E1E1F00001F1F1F1F1F1F000307B5
:1000F0000F1F0F070300001F1F1F1F1F1F001B1BC9
:100100001B1B1B1B1B00181C1E1F1E1C18000004A1
:10011000040E0E1F1F00001F1F0E0E04040000001F
:10012000000000000000000E1915130E0000000E64
:100130001515150E0000000E1315190E0000000E07
:10014000111F110E000011241FBECFEFD0E1DEBF42
:10015000CDBF11E0A0E0B1E0E0EEF4E200E00BBFC3
:1001600002C007900D92A832B107D9F711E0A8E2BA
:10017000B1E001C01D92A136B107E1F70E94420132
:100180000C946F120C9400001F920F920FB60F92F6
:1001900011248F93F8948FEA82BF809140018F5F82
:1001A000809340018A3531F51092400180914101E0
:1001B0008F5F809341018C3338F0809142018F5FD3
:1001C0008093420110924101809142018B3338F0BB
:1001D000809143018F5F809343011092420180918F
:1001E0004301883138F010924301809144018F5FC0
:1001F0008093440178948F910F900FBE0F901F90C1
:1002000018950F931F93CF93DF93EB01813021F467
:1002100067E080E091E005C0823029F467E088E083
:1002200091E00E944C06CE0164E670E00E946F11DE
:10023000862F662321F0805D0E94AA0505C061E03B
:1002400080E191E00E944C06CE0164E670E00E94DD
:100250006F118C016AE00E946311805D0E94AA0503
:1002600061E082E191E00E944C06802F6AE00E94EA
:100270006311892F805D0E94AA05DF91CF911F91A4
:100280000F910895CF93DF93CDB7DEB724970FB6C4
:10029000F894DEBF0FBECDBF8FEF82B987E083BF7A
:1002A0008FEA82BF87B7816087BF86B7816086BFCC
:1002B0000E94EF030E94E6030E94B5066BE084E112
:1002C00091E00E944C0610924C0110924B0120E0EC
:1002D00030E0E3E3F7E0CF010197F1F72F5F3F4F05
:1002E00081E0243F3807B9F784EF91E090934C0107
:1002F00080934B010E94F90580EC83B98091410104
:10030000843018F083B1806383B981E00E945F0478
:100310009C838B8310924A011092490120E030E0C7
:10032000E3E3F7E0CF010197F1F72F5F3F4F24366A
:100330003105C1F784E690E090934A01809349012A
:100340008B819C818C52914028F48B819C81823DD1
:10035000910518F483B1836001C083B183B980E053
:1003600090E00197F1F782E00E945F049A8389830D
:10037000109248011092470120E030E0E3E3F7E0FB
:10038000CF010197F1F72F5F3F4F24363105C1F7B9
:1003900084E690E0909348018093470189819A8197
:1003A000845F914028F489819A81823D910518F4F7
:1003B00083B18C6001C083B183B980E090E0019784
:1003C000F1F760E080E00E94FD056B817C8181E0B7
:1003D0000E94010161E080E00E94FD0569817A814F
:1003E00082E00E940101109246011092450120E036
:1003F00030E0E3E3F7E0CF010197F1F72F5F3F4FE4
:1004000081E02C323807B9F78CE291E090934601F5
:1004100080934501809141018A3040F083B1806C26
:1004200083B980E090E00197F1F766CF83B183B99B
:1004300063CF0895482F899A90E820E030E0892F13
:10044000842311F0919A01C09198909A00000000C5
:10045000909896952F5F3F4F2830310581F7919AFC
:10046000899800000000909A80B39098899A992703
:1004700096958795817090700895982F8998919A94
:100480000000000040E880E020E030E0909A0000AA
:1004900000008199842B90980000000046952F5F02
:1004A0003F4F2830310591F7899A992311F091989F
:1004B00001C0919A909A00000000909800000000FE
:1004C000919A99270895919A909800000000909A27
:1004D00000000000919800000000909800000000CB
:1004E000909A00000000919A0000000090980895F2
:1004F000919A909880E0909A90988F5F8930D9F780
:100500000E94630208950E9478028EE10E941A02FE
:1005100099270895DF92EF92FF920F931F938C011A
:100520007B010E94630287E00E941A02D82E81E0BC
:100530000E943D02F801808380E00E943D02F701A5
:1005400080838D2D99271F910F91FF90EF90DF9061
:100550000895EF92FF921F937C010E94630286E050
:100560000E941A02182FF70180810E941A02180FA8
:10057000812F99271F91FF90EF9008950895EF9292
:10058000FF920F931F93CF93DF93EC017B01042F16
:100590000E946302013019F0023019F008C083E0B4
:1005A00001C085E00E941A029927009751F58998A9
:1005B00080916A00837F80936A0089B7826089BFD7
:1005C00084EF91E00E94190280915A018130C1F7B5
:1005D00089980E943D02082F81E00E943D02112768
:1005E000102F0027080F111D1983088380E00E9437
:1005F0003D029927F7019183808310925A0180E090
:1006000090E0DF91CF911F910F91FF90EF900895AF
:100610002F923F924F925F926F927F928F929F9212
:10062000AF92BF92CF92DF92EF92FF920F931F9300
:100630008C017B01B801882777FD8095982F0E9457
:10064000800E3B014C0117FF08C020E030E040E87D
:1006500057E40E94D90B3B014C01B701882777FD75
:100660008095982F0E94800EF7FE06C020E030E0B3
:1006700040E857E40E94D90B2AE037ED43E25CE3FF
:100680000E94060C20E030E040E252E40E94A80BF9
:100690001B012C0120E030E048EC51E40E94A80B43
:1006A0007B018C012CEA35EC47EA58E3C401B30125
:1006B0000E94060C2AE037ED43E25CE30E94D90B6E
:1006C0009B01AC01C801B7010E94060C5B016C01E3
:1006D00022EA37EE4BE356EBC401B3010E94060C4D
:1006E000A40193010E94060C7B018C0124E533EEEA
:1006F00045E25DE3C401B3010E94060C9B01AC011D
:10070000C801B7010E94D90B20E030E040E850E476
:100710000E94A80B9B01AC01C601B5010E94D90B38
:100720007B018C0120E030E048EC52E40E94DE0DB9
:1007300018165CF40F2EF0E0EF2EF0E0FF2EF8EC30
:100740000F2FF2E41F2FF02D14C02DEC3CEC4CECDD
:100750005DE3C801B7010E944A0E882354F40F2EAE
:10076000FDECEF2EFCECFF2EFCEC0F2FFDE31F2F1A
:10077000F02D20E030E040E251E4C201B1010E94DE
:10078000060C0E94550A7093500160934F0120E0BF
:1007900030E040E251E4C801B7010E94060C0E941B
:1007A000550A70935E0160935D011F910F91FF9058
:1007B000EF90DF90CF90BF90AF909F908F907F9001
:1007C0006F905F904F903F902F9008957894E4E75A
:1007D000F0E080818B7F808310925A010895899A7E
:1007E000889A0E94780208956F927F928F929F92CA
:1007F000AF92BF92CF92DF92EF92FF920F931F932F
:100800003B014C0179018A0120E030E040EF50E4E7
:10081000C801B7010E94060C5B016C012DEC3CE4A1
:100820004DE653E4C801B7010E94D90B9B01AC010E
:10083000C601B5010E94240D29E338E249E25FE3D5
:100840000E94D90B7B018C01C401B3010E94DC1111
:100850009B01AC01C801B7010E94D90B20E030E038
:1008600040E050E40E94A80B7B018C0129E338E2B0
:1008700049E25FE30E94A80B2DEC3CE44DE653E413
:100880000E94060C5B016C01A801970164E872E903
:1008900082E091E40E94A80B9B01AC01C601B50166
:1008A0000E94240D1F910F91FF90EF90DF90CF9049
:1008B000BF90AF909F908F907F906F900895CF9250
:1008C000DF92EF92FF920F931F9380935301109248
:1008D0005C0110925B0142E06FE571E084E591E01C
:1008E0000E94BF02082F112710935C0100935B0147
:1008F00041E06FE571E081E591E00E94BF02080FE1
:10090000111D10935C0100935B01012B19F00E94F3
:10091000780245C06091510170915201809154015B
:10092000909155010E94080380915301882309F09A
:100930004CC00091510110915201B801882777FDF8
:100940008095982F0E94800E6B017C0117FF08C0D4
:1009500020E030E040E857E40E94D90B6B017C01B5
:100960000091540110915501B801882777FD8095B9
:10097000982F0E94800E17FF06C020E030E040E86C
:1009800057E40E94D90BA70196010E94F4036093DB
:1009900056017093570180935801909359018091AB
:1009A0005301882391F420E030E040E251E460916B
:1009B00056017091570180915801909159010E9400
:1009C000060C0E94550ACB0110C0823029F4809198
:1009D0005D0190915E0109C0813019F080E090E0E6
:1009E00004C080914F01909150011F910F91FF9091
:1009F000EF90DF90CF9008951F920F920FB60F9255
:100A000011248F93EF93FF93EAE6F0E08081877FD4
:100A1000808389B78D7F89BF899A81E080935A014D
:100A2000FF91EF918F910F900FBE0F901F9018952F
:100A30009598969897988D9A8E9A8F9A14BA8FEF68
:100A400085BB0895959814BA8FEF85BB969A979AAF
:100A500026C0979800000000000000000000000081
:100A60000000000000000000000000000000000086
:100A70000000000000000000000000000000000076
:100A800000000000979A0000000000000000000035
:100A90000000000000000000000000000000000056
:100AA0000000000000000000000000000000000046
:100AB0000000000000009F99CCCF979808951F93E5
:100AC000182F0E94220595989698979A8FEF84BBCD
:100AD00015BB000000000000000000000000000046
:100AE0000000000000000000000000000000000006
:100AF00000000000000000000000000000000000F6
:100B00000000979814BA85BB1F9108950E94220592
:100B100014BA8FEF85BB9598969A979A00000000BB
:100B200000000000000000000000000000000000C5
:100B300000000000000000000000000000000000B5
:100B400000000000000000000000000083B3979840
:100B5000992708951F93182F0E942205959A969819
:100B6000979A8FEF84BB15BB0000000000000000C7
:100B70000000000000000000000000000000000075
:100B80000000000000000000000000000000000065
:100B90000000000000000000979814BA85BB1F9168
:100BA00008950E94220514BA8FEF85BB959A969AF4
:100BB000979A000000000000000000000000000004
:100BC0000000000000000000000000000000000025
:100BD0000000000000000000000000000000000015
:100BE000000083B397989927089582E00E945F05DB
:100BF000089581E00E945F050895623031F063300E
:100C000031F0613029F4805C03C08C5E01C08C5AE5
:100C100080680E945F050895BF92CF92DF92EF92A5
:100C2000FF920F931F93182FC62E0E948605B82E91
:100C3000CC0CCC0CCC0C110F110F110FE12EFF249A
:100C4000002711278EEB90E0A1E0B0E0E80EF91E3E
:100C50000A1F1B1FDD248C2D8D0D80640E945F05F3
:100C60000BBFF70187910E94AA05D3940894E11C59
:100C7000F11C011D111D98E0D91669F7AFE7BA22E2
:100C80008B2D80680E945F051F910F91FF90EF9060
:100C9000DF90CF90BF9008950F931F93CF93DF9372
:100CA000EC01062F892B59F010E007C0FE01E10F7F
:100CB000F11D80810E94AA051F5F1017B9F7DF910F
:100CC000CF911F910F910895BF92CF92DF92EF9233
:100CD000FF920F931F93B42E55279C01220F331FB1
:100CE000280F391F220F331F429FC001439F900DD1
:100CF000529F900D11240E946F117B010027112734
:100D0000C801B70126E030E040E050E00E948311C6
:100D1000C62EDD2420C086E0D89E900111242B5FD2
:100D20003F4FC901AA27BB2725503040E816F906D6
:100D30000A071B0710F085E00BC0C901AA27BB27D3
:100D4000E816F9060A071B0710F480E001C08C2D95
:100D50000E94AA05D394DB14F1F61F910F91FF9026
:100D6000EF90DF90CF90BF9008950E94180588E320
:100D70000E945F0581E00E945F058CE390E00E9485
:100D8000010786E00E945F058CE00E945F0582E01B
:100D90000E945F0580E80E945F0560E080E00E949D
:100DA0000C0661E081E00E940C0662E082E00E9495
:100DB0000C0663E083E00E940C0664E084E00E947D
:100DC0000C0665E085E00E940C0666E086E00E9465
:100DD0000C0667E087E00E940C06089590934E0190
:100DE00080934D010895AC0120E030E002C00F92E5
:100DF0000F90822F99272F5F3F4F84179507B8F3E5
:100E000008950F931F93CF93DF938C01C0E0D0E040
:100E100011C08AEF90E00E94F3068AEF90E00E94F2
:100E2000F3068AEF90E00E94F3068AEF90E00E94BA
:100E3000F3062196C017D10761F7DF91CF911F917B
:100E40000F9108958FB9779BFECFC0986FB9779BAC
:100E5000FECFC09A8AE090E00E94010708958FB902
:100E6000779BFECF089591E0823018F086959F5FC2
:100E7000FBCF813019F080E090E00895892F992709
:100E800008959C01FB0187E221313807A0F1C901D7
:100E900060E177E20E946F11605D6083C90168EED6
:100EA00073E00E946F11CB016AE070E00E946F1145
:100EB000805D8183C90164E670E00E946F11CB01FF
:100EC0006AE070E00E946F11805D8283C9016AE070
:100ED00070E00E946F11CB016AE070E00E946F1118
:100EE000805D8383C9016AE070E00E946F11805DBC
:100EF00084831582089583E0293E380740F1C901B3
:100F000068EE73E00E946F11605D6083C90164E662
:100F100070E00E946F11CB016AE070E00E946F11D7
:100F2000805D8183C9016AE070E00E946F11CB018E
:100F30006AE070E00E946F11805D8283C9016AE0FF
:100F400070E00E946F11805D8383148208952536BE
:100F50003105E0F0C90164E670E00E946F11605D48
:100F60006083C9016AE070E00E946F11CB016AE002
:100F700070E00E946F11805D8183C9016AE070E0BA
:100F80000E946F11805D8283138208952B3031059A
:100F900080F0C9016AE070E00E946F11605D6083BB
:100FA000C9016AE070E00E946F11805D8183128246
:100FB00008952115310529F0822F805D80831182EB
:100FC00008951082089587B3876087BBC09A80E533
:100FD0008DB91EB808958A988B9A10929B0098E15B
:100FE00090939A0096E090939D00109298008093C1
:100FF0009900089580919B0087FFFCCF80919C0011
:1010000090919B00906890939B0099270895982F4A
:1010100080919B0085FFFCCF90939C0080919B006A
:10102000806280939B0008950F931F93CF93DF936B
:101030008C01C0E0D0E002C00E940708F801EC0F6C
:10104000F11D808121968823B9F7DF91CF911F91FF
:101050000F91089540E021E030E0992709C0F9019F
:10106000E89F9001E99F300DF89F300D11244F5FEC
:101070004617A9F7C90108952F923F924F925F92A8
:101080006F927F928F929F92AF92BF92CF92DF9298
:10109000EF92FF920F931F93CF93DF93CDB7DEB7FD
:1010A000C556D0400FB6F894DEBF0FBECDBFFE01CF
:1010B000B19680E4DF011D928A95E9F7ACE7AA2E8C
:1010C000B12CAC0EBD1EA696FFAFEEAFA697BFC16A
:1010D0008532B9F5CF010196EC969FAF8EAFEC97B4
:1010E000118110531A3010F013E005C00196EC96F0
:1010F0009FAF8EAFEC97EC96EEADFFADEC97E08135
:10110000E43609F444C0E53638F4E23609F44BC05D
:10111000E33609F093C109C0E337E9F0E83709F491
:101120004EC0E63609F08AC156C022E030E0A20E79
:10113000B31E8EEF9FEFA80EB91ED5018C91A20EA3
:10114000B31EA696EEADFFADA6978193A696FFAF10
:10115000EEAFA69773C122E030E0A20EB31ED50118
:10116000FE91EE915D01A20EB31E8191A696AEADE9
:10117000BFADA6978D93A696BFAFAEAFA6978823B7
:10118000A1F71197A696BFAFAEAFA69757C1E2E001
:10119000F0E0AE0EBF1ED5013E912E915D01AE0E68
:1011A000BF1E6AE01CC1E2E0F0E0AE0EBF1ED5013A
:1011B0003E912E915D01AE0EBF1E62E010C1E2E0D5
:1011C000F0E0AE0EBF1ED5013E912E915D01AE0E38
:1011D000BF1E60E104C1E4E0F0E0AE0EBF1ED50129
:1011E0009E908E907E906E905D01AE0EBF1E20E0B0
:1011F00030E040E85FE3C401B3010E94140E88238D
:101200008CF1C401B3010E94550A9B01FE01B09606
:10121000C9016AE070E00E946F11805D80833197A0
:10122000C9016AE070E00E946F119B01672B81F792
:10123000CE018096282F2E1BA696AEADBFADA697E9
:10124000922F03C0319680818D939150D8F7A69646
:10125000EEADFFADA697E20FF11DA696FFAFEEAF84
:10126000A6970AC080E3A696AEADBFADA6978D93B4
:10127000A696BFAFAEAFA697112309F4DFC0A29622
:101280001FAFA297143020F0B3E0A296BFAFA29791
:10129000A696EEADFFADA6978EE28193A496FFAF22
:1012A000EEAFA49720E0E1E0CE2ED12C0BC0C6011A
:1012B000880F991F63E0CC0CDD1C6A95E1F7C80E1E
:1012C000D91E2F5FA296FFADA2972F1781F7B60107
:1012D000882777FD8095982F0E94800E7B018C01D6
:1012E000D7FE08C020E030E040E857E40E94D90B68
:1012F0007B018C0120E051E0C52ED12C0BC0C60132
:10130000880F991F33E0CC0CDD1C3A95E1F7C80E2D
:10131000D91E2F5FA2963FADA297231781F7A80190
:101320009701C401B3010E94060C1B012C01C401EA
:10133000B3010E94550A6C9D80016D9D100D7C9D2E
:10134000100D1124B801882777FD8095982F0E94F1
:10135000800E17FF06C020E030E040E857E40E940E
:10136000D90B9B01AC01C201B1010E94A80B0E94E4
:10137000550AFB018E01005E1F4F30E012C0CF0105
:101380006AE070E00E946F11282F205DCF016AE0B3
:1013900070E00E946F11FB01D8012C9301501040A6
:1013A0003F5FA296BFADA2973B1749F7A696EEAD59
:1013B000FFADA6979B2F06C00F5F1F4FD8018C91E2
:1013C0008083915031969923B9F7A496EEADFFAD85
:1013D000A497A2962FADA297E20FF11DB7CEFE0102
:1013E000B096062F1127C901B8010E946F118A30EB
:1013F00010F0895C01C0805D80833197C901B8011C
:101400000E946F119B01672B71F7CE018096282FE8
:101410002E1BA696AEADBFADA697922F03C03196F8
:1014200080818D939150D8F7A6968EAD9FADA697EB
:10143000820F911DA6969FAF8EAFA697EC968EADAC
:101440009FADEC970196EC969FAF8EAFEC97EC9624
:10145000EEADFFADEC978081882309F039CEA696DA
:10146000AEADBFADA6971C92E0914D01F0914E013B
:10147000CE0181960995CB59DF4F0FB6F894DEBFA8
:101480000FBECDBFDF91CF911F910F91FF90EF90D5
:10149000DF90CF90BF90AF909F908F907F906F9094
:1014A0005F904F903F902F900895EF92FF920F938F
:1014B0001F937B018C0120E030E040E05FE40E945C
:1014C000140E88237CF020E030E040E05FE4C801A7
:1014D000B7010E94A80B0E94E90E60507040804046
:1014E000904804C0C801B7010E94E90E1F910F91F6
:1014F000FF90EF900895A0E0B0E0E1E8FAE00C94EE
:10150000A911FC016A019081923008F41BC1DB0132
:101510008C91823080F0943061F4843009F012C1F3
:101520009181EB018981981709F40CC1EFE1F1E099
:1015300009C1843011F4FB0105C1823091F492306D
:1015400009F000C1EA01DF0188E00D9009928150A5
:10155000E1F78181FB0191818923E6018983F6010D
:10156000F1C0923041F362807380EB018A809B80EE
:10157000E480F580068117812C813D814E815F8159
:101580005301A818B908C501B7FCABC080970CF48B
:1015900057C0861497040CF4BEC03401EE24FF2417
:1015A00087019181FB018181981709F4A6C09923D5
:1015B00009F49CC02E193F09400B510B57FDB0C0D8
:1015C000E60119827B826A82F60124833583468391
:1015D0005783E6012C813D814E815F8179018A012B
:1015E000DA01C9010197A109B1098F5F9F4FAF4F80
:1015F000BF43F8F4E6016A817B81A8019701220FBD
:10160000331F441F551F6150704079018A01DA0170
:10161000C9010197A109B1098F5F9F4FAF4FBF4328
:1016200060F3E6017B836A83F60124833583468376
:10163000578383E0D6018C9357FD39C0F60182C0F1
:1016400086149704B4F4C0E0D0E0DA01C9018170D7
:101650009070A070B0705695479537952795282BB8
:10166000392B4A2B5B2B2196AC16BD0671F78A0CE1
:101670009B1C681479040CF094CFC0E0D0E05401B6
:10168000A618B708D801C70181709070A070B0701B
:1016900016950795F794E794E82AF92A0A2B1B2B4D
:1016A0002196AC16BD0671F76A0C7B1C7ACFDA0165
:1016B000C901B695A79597958795217030704070B0
:1016C0005070282B392B4A2B5B2BE6012C833D8352
:1016D0004E835F838A819B8101969B838A83F60177
:1016E00031C0882799278A199B0950CFE21AF30A3B
:1016F000040B150BA801970161CFE60199837B824A
:101700006A822E0D3F1D401F511FF6012483358331
:10171000468357838ECF20E030E040E050E041CF59
:1017200081E0E60189837B826A82509540953095FD
:1017300021953F4F4F4F5F4FF601248335834683FA
:10174000578347CFCF01EEE0CDB7DEB70C94C5117C
:10175000A0E2B0E0EEEAFBE00C94B11169837A8379
:101760008B839C832D833E834F83588789E1E82EAA
:10177000F12CEC0EFD1EB701CE0101960E945B100C
:101780008E010F5E1F4FB801CE0105960E945B10BF
:101790008A8991E089278A8BAE01475F5F4FB80144
:1017A000C7010E947B0A0E94390FE6E0A0960C94C4
:1017B000CD11A0E2B0E0EFEDFBE00C94B111698334
:1017C0007A838B839C832D833E834F83588799E153
:1017D000E92EF12CEC0EFD1EB701CE0101960E9400
:1017E0005B108E010F5E1F4FB801CE0105960E945F
:1017F0005B10AE01475F5F4FB801C7010E947B0AD3
:101800000E94390FE6E0A0960C94CD11A0E2B0E062
:10181000ECE0FCE00C94A51169837A838B839C83B4
:101820002D833E834F8358878E01075E1F4FB8017B
:10183000CE0101960E945B10F1E1EF2EF12CEC0E2F
:10184000FD1EB701CE0105960E945B10898D823086
:1018500078F09989923040F420E09A8D8A89981323
:1018600021E02A8BB701E9C0843051F4923061F055
:1018700020E09A8D8A89981321E02A8FB801DDC073
:10188000943029F4823041F76FE171E0D6C08230A4
:1018900079F3923009F32D8D3E8D4F8D58A18D89AE
:1018A0009E89AF89B88D222433242101AA24BB2428
:1018B0006501EE24FF24870160E070E00DC06F5FDA
:1018C0007F4F6032710599F1880F991FAA1FBB1FC6
:1018D000569547953795279520FF19C0280E391E34
:1018E0004A1E5B1E662477244301281639064A06E1
:1018F0005B0628F4E1E06E2E712C812C912CAE0C4D
:10190000BF1CC01ED11EA60CB71CC81CD91CEE0CD7
:10191000FF1C001F111FB7FFD2CFE1E06E2E712C0C
:10192000812C912CE628F72808291929C8CF8B8DFE
:101930009C8D2B893C89820F931F02969C878B87F5
:101940001A869A8D8A89981711F081E08A87D7FEC6
:1019500017C08B859C85A0FE0CC056944794379485
:10196000279420E030E040E050E8222A332A442A3D
:10197000552AD694C794B794A79401969C878B87D1
:1019800030E0A31630E0B30630E0C30630E4D306FF
:1019900018F58B859C850EC0220C331C441C551CED
:1019A000019720E0A21620E0B20620E0C20620E463
:1019B000D20680F4AA0CBB1CCC1CDD1C57FEECCF5D
:1019C00031E0632E712C812C912CA628B728C828D1
:1019D000D928E2CF9C878B87D601C5018F7790707D
:1019E000A070B07080349105A105B10551F0AD86AD
:1019F000BE86CF86D88A83E08987BE01675F7F4F26
:101A00001CC0A7FCF4CF211431044104510479F324
:101A100080E490E0A0E0B0E0A80EB91ECA1EDB1E74
:101A200080E8682E8FEF782E8FEF882E8FEF982E1C
:101A3000A620B720C820D920DACFCB010E94390FC9
:101A4000E2E1A0960C94C111A8E1B0E0EAE2FDE069
:101A50000C94AB1169837A838B839C832D833E83A3
:101A60004F835887B1E18B2E912C8C0E9D1EB401B3
:101A7000CE0101960E945B108E01075F1F4FB801D7
:101A8000CE0105960E945B102989223008F46AC0B5
:101A90003985323008F468C08A899A8589278A8B0B
:101AA000243009F463C0223009F460C0343041F4BA
:101AB0001D8A1E8A1F8A188E1C8A1B8AB40177C051
:101AC000323009F458C06B897C898B859C85681BF2
:101AD000790B7C8B6B8B2D893E894F89588DED84DA
:101AE000FE840F8518892E153F054007510740F4E5
:101AF000220F331F441F551F615070407C8B6B8B2E
:101B000080E090E0A0E0B0E4AA24BB24650160E09E
:101B100070E02E153F054007510740F0A82AB92A6A
:101B2000CA2ADB2A2E193F09400B510BB695A795FF
:101B300097958795220F331F441F551F6F5F7F4F67
:101B40006F31710531F7D601C5018F779070A070A4
:101B5000B07080349105A105B10589F0AD8ABE8AC7
:101B6000CF8AD88EB40123C0B80121C03217D1F773
:101B70006FE171E01CC084E0898BB40118C0A7FC40
:101B8000EDCF211531054105510541F380E490E089
:101B9000A0E0B0E0A80EB91ECA1EDB1E80E89FEFD1
:101BA000AFEFBFEFA822B922CA22DB22D7CFCB01E9
:101BB0000E94390FECE068960C94C711A8E1B0E0E0
:101BC000E4EEFDE00C94B11169837A838B839C83EE
:101BD0002D833E834F83588781E1E82EF12CEC0E54
:101BE000FD1EB701CE0101960E945B108E01075FBA
:101BF0001F4FB801CE0105960E945B108989823083
:101C000018F42FEF3FEF0BC089858230D0F3B80175
:101C1000C7010E94FA10282F332727FD3095C901EC
:101C2000E6E068960C94CD11A8E1B0E0EAE1FEE0B0
:101C30000C94B11169837A838B839C832D833E83BB
:101C40004F83588781E1E82EF12CEC0EFD1EB70181
:101C5000CE0101960E945B108E01075F1F4FB801F5
:101C6000CE0105960E945B108989823018F42FEF0F
:101C70003FEF0BC089858230D0F3B801C7010E94C5
:101C8000FA10282F332727FD3095C901E6E0689622
:101C90000C94CD11A8E1B0E0E0E5FEE00C94B111A8
:101CA00069837A838B839C832D833E834F835887FC
:101CB00081E1E82EF12CEC0EFD1EB701CE0101965C
:101CC0000E945B108E01075F1F4FB801CE01059681
:101CD0000E945B108989823018F08985823018F45F
:101CE00021E030E008C0B801C7010E94FA10282F97
:101CF000332727FD3095C901E6E068960C94CD1195
:101D0000A8E0B0E0E6E8FEE00C94B4119B01AC0161
:101D100083E089831A8257FD51C0211531054105A1
:101D2000510539F482E08983CE0101960E94390F72
:101D30004CC0EEE1F0E0FC83EB838A818823C9F19B
:101D4000203010E0310710E0410710E85107C9F1D9
:101D500088279927DC01821B930BA40BB50B8D837D
:101D60009E83AF83B8872D813E814F815885203077
:101D700080E0380780E0480780E45807A8F6EB8148
:101D8000FC81DA01C901880F991FAA1FBB1F319777
:101D90009C01AD01803010E0910710E0A10710E434
:101DA000B10778F3FC83EB838D839E83AF83B88781
:101DB000BBCF2D833E834F835887D5CF81E08A8365
:101DC000ACCF60E070E080E09FECE3E028960C94FC
:101DD000D011ACE0B0E0EFEEFEE00C94B5116983F9
:101DE0007A838B839C83BE016B5F7F4FCE0101960C
:101DF0000E945B108D81823061F0823050F084301F
:101E000069F48E81882359F52FEF3FEF4FEF5FE79D
:101E10002AC020E030E040E050E025C02F81388526
:101E200037FDF7CF2F31310564F78EE190E0821B4B
:101E3000930B29853A854B855C8504C0569547955B
:101E4000379527958A95D2F78E81882361F0509532
:101E50004095309521953F4F4F4F5F4F04C020E094
:101E600030E040E050E8CA01B901E2E02C960C9461
:101E7000D1114F925F926F927F928F929F92AF9209
:101E8000BF92DF92EF92FF920F931F9320E030E01A
:101E900040E050E0FC01E480F58006811781D180AC
:101EA0008081823038F4D801C701A061AF77B0706B
:101EB0006FEFD9C0843009F46EC0823009F471C06C
:101EC000E114F1040105110509F46BC082819381CD
:101ED0006FEF823896070CF06AC062E87FEF681BEC
:101EE000790B6A3171050CF080C047015801062E4C
:101EF00004C0B694A794979487940A94D2F7442484
:101F00005524320181E090E0A0E0B0E004C0880FE9
:101F1000991FAA1FBB1F6A95D2F70197A109B109A2
:101F2000E822F9220A231B23E114F104010511051B
:101F300029F061E0462E512C612C712C8501740131
:101F4000E428F52806291729D801C7018F77907052
:101F5000A070B07080349105A105B10509F457C097
:101F6000D801C701CF96A11DB11D60E070E080309F
:101F7000E0E09E07E0E0AE07E0E4BE0710F061E0BD
:101F800070E027E0B695A795979587952A95D1F7A4
:101F9000AF77B07068C080E090E0A0E0B0E06FEF95
:101FA00062C080E090E0A0E0B0E060E05CC080381B
:101FB00091058CF7BC0161587F4FD801C7018F771D
:101FC0009070A070B07080349105A105B105A1F0AA
:101FD0008FE390E0A0E0B0E0E80EF91E0A1F1B1F9F
:101FE00017FD28C0D801C701CCCF60E070E080E0C9
:101FF00090E0A0E0B0E0CCCFE7FEF2CF80E490E04C
:10200000A0E0B0E0E80EF91E0A1F1B1FE9CFE7FCB5
:1020100018C080E090E060E0E61660E0F60660E060
:10202000060760E4160710F081E090E0BC01D801DB
:10203000C701A7CF16950795F794E7946F5F7F4F79
:10204000D1CFD801C701805C9F4FAF4FBF4F60E039
:1020500070E08030E0E09E07E0E0AE07E0E4BE071D
:1020600008F48FCF8CCF282F392F9A2F9F77842F6A
:102070008078892B962F9795992797958F77482F5A
:10208000492B6695852F8078862BD794DD24D794AD
:102090008F77582F5D29CA01B9011F910F91FF90C9
:1020A000EF90DF90BF90AF909F908F907F906F9058
:1020B0005F904F900895FC01DB0120813181928176
:1020C000492F4F7750E0991F9927991F8381682FD7
:1020D000660F692B881F8827881FFD01818366236F
:1020E00009F049C0211531054105510509F470C0B9
:1020F00082E89FEFFD0193838283220F331F441FE9
:10210000551F220F331F441F551F220F331F441F1B
:10211000551F220F331F441F551F220F331F441F0B
:10212000551F220F331F441F551F220F331F441FFB
:10213000551F83E08C932030F0E03F07F0E04F071D
:10214000F0E45F0790F482E89FEF220F331F441FF3
:10215000551F0197203060E0360760E0460760E4D5
:10216000560798F3FD0193838283FD012483358311
:102170004683578308956F3F71F1862F99278F57B4
:102180009040FD019383828383E08C93220F331F61
:10219000441F551F220F331F441F551F220F331F8B
:1021A000441F551F220F331F441F551F220F331F7B
:1021B000441F551F220F331F441F551F220F331F6B
:1021C000441F551F506424833583468357830895E5
:1021D00082E08C930895211531054105510519F4CC
:1021E00084E08C93089544FD02C01C92BECF81E030
:1021F0008C93BBCFEF92FF920F931F93CF93DF93FC
:10220000FC01DB018081823050F09C91923038F0EB
:10221000843041F49430B1F08181882381F461E00D
:1022200070E04BC09430E9F18230A1F09230A1F31C
:102230006181ED018981681791F0662381F36FEF69
:102240007FEF3BC0EB018981682F77278181681B75
:10225000710933C0923059F560E070E02EC02281E0
:102260003381ED018A819B818217930734F328170C
:1022700039079CF0E480F58006811781FD012481F7
:102280003581468157812E153F0540075107A8F239
:10229000E216F30604071507F8F6662309F0BFCF28
:1022A000CECFFB018181882309F0B9CFC8CFEB01E4
:1022B0008981882309F0B3CFC2CFCB01E6E0CDB747
:1022C000DEB70C94CD11991B79E004C0991F9617C5
:1022D00008F0961B881F7A95C9F780950895AA1B68
:1022E000BB1B51E107C0AA1FBB1FA617B70710F001
:1022F000A61BB70B881F991F5A95A9F78095909533
:10230000BC01CD010895A1E21A2EAA1BBB1BFD0141
:102310000DC0AA1FBB1FEE1FFF1FA217B307E407C4
:10232000F50720F0A21BB30BE40BF50B661F771F1C
:10233000881F991F1A9469F76095709580959095FC
:102340009B01AC01BD01CF0108952F923F924F92A6
:102350005F926F927F928F929F92AF92BF92CF9235
:10236000DF92EF92FF920F931F93CF93DF93CDB73E
:10237000DEB7CA1BDB0B0FB6F894DEBF0FBECDBFB6
:1023800009942A88398848885F846E847D848C8487
:102390009B84AA84B984C884DF80EE80FD800C8190
:1023A0001B81AA81B981CE0FD11D0FB6F894DEBF73
:1023B0000FBECDBFED01089505D050E443E13DE5EA
:1023C0002EE842CB97FD27C076D0992309F423C08D
:1023D000FF92EF92DF92CF92C92E9FE38F77ECE8C6
:1023E000F0E01CD00C2CC92ED82EE72EF62E602D36
:1023F0006E57770B872F972F83DC5FE341E332E73C
:1024000028E104DA5C2D4D2D3E2D2F2DCF90DF904D
:10241000EF90FF90CEC99FEF80EC0895FF92EF926E
:10242000DF92CF92BF926B017C01B59016D0B59030
:10243000BB2069F09F938F937F936F93B601C70181
:102440000CD02F913F914F915F910E94240DBF902E
:10245000CF90DF90EF90FF9008953CD002C096019E
:10246000A701EF93FF930E94060CFF91EF9132D0EA
:10247000EF93FF930E94D90BFF91EF91BA9479F7F4
:102480000895052E092607FA440F551F5F3F79F07E
:10249000AA27A51708F051E04795880F991F9F3F7D
:1024A00031F0BB27B91708F091E0879508959F9107
:1024B0009F911124B0CF97FB880F991F9F3F31F058
:1024C000BB27B91708F091E0879508959F919F91D8
:1024D0001124A1CF55914591359125910895FFCFB4
:1024E0002054656D703A20002048756D693A2000CF
:1024F00020002E0042792E204C41504F54450000C0
:082500000000000000000000D3
:00000001FF
