:100000000C9446000C9465000C9465000C946500FB
:100010000C9465000C9465000C9465000C946500CC
:100020000C9465000C9465000C9465000C946500BC
:100030000C9465000C9465000C9465000C946500AC
:100040000C9465000C9465000C9465000C9465009C
:100050000C9465000C9465000C9465000C9465008C
:100060000C9465000C9465000C9465000C9465007C
:100070000C9465000C9465000C9465000C9465006C
:100080000C9465000C9465000C94650011241FBE4F
:10009000CFEFD0E1DEBFCDBF11E0A0E0B1E0EEE0F8
:1000A000F9E000E00BBF02C007900D92AE32B1073D
:1000B000D9F711E0AEE2B1E001C01D92A833B1075B
:1000C000E1F70E94EF000C9485040C94000010925C
:1000D00061008FEF87BB0895369A349A349BFECF28
:1000E00024B135B13698C9010895CF92DF92EF92CD
:1000F000FF920F931F93DF93CF93CDB7DEB7C05816
:10010000D0400FB6F894DEBF0FBECDBF01E010E0C7
:1001100089E1C82ED12C7E010894E11CF11C26C077
:10012000F6013197F1F70197D9F7C80101978B5282
:10013000914030F0C8018C5291408C589A4020F484
:10014000C70160E071E007C08BE0083B18072CF0A6
:10015000C70160E171E00E94A70181E090E060E0EA
:1001600070E0A7010E9484010F5F1F4F8FEF9FEF88
:10017000D7CFEF92FF920F931F93DF93CF93CDB71B
:10018000DEB7C058D0400FB6F894DEBF0FBECDBF6B
:100190008C017E010894E11CF11C00D000D0EDB769
:1001A000FEB7F282E182748363830E94AE010F90F6
:1001B0000F900F900F90C80160E070E0A7010E94BF
:1001C0008401C058DF4F0FB6F894DEBF0FBECDBF1D
:1001D000CF91DF911F910F91FF90EF900895FF92C3
:1001E0000F931F9301E610E0F8011082FF24FA94A8
:1001F000F7BA0E94610180E090E06EE171E00E9438
:10020000B900F8011082F7BA0E94750080E090E012
:100210001F910F91FF900895DF93CF9300D0CDB73A
:10022000DEB7979A1A82198205C089819A81019650
:100230009A83898389819A810A97BCF397980F9052
:100240000F90CF91DF910895DF93CF9300D0CDB77A
:10025000DEB714BA82B38F79806482BB979A1A8210
:10026000198205C089819A8101969A83898389813F
:100270009A810A97BCF383B3979887FDEFCF0F90CD
:100280000F90CF91DF9108951F93182F0E942401A2
:100290008FEF84BB15BB82B38F7982BB0E940C01A8
:1002A0001F9108951F93182F0E9424018FEF84BB84
:1002B00015BB82B38F79806282BB0E940C011F91B3
:1002C000089581B3806E81BB82B38F7182BB8CE352
:1002D0000E94440182E00E94440181E00E944401A6
:1002E00086E00E9444018FE00E94440108958170DD
:1002F0009070029626E0880F991F2A95E1F76F7398
:10030000860F0E9444010895EF92FF920F931F936E
:10031000CF93DF938B017A010E947701C0E0D0E098
:1003200003C00E9452012196CE01800F911F80349C
:10033000910530F4F701EC0FFD1F8081882389F7C8
:10034000DF91CF911F910F91FF90EF900895FB01E6
:10035000DC0101900D920020E1F708950F931F93A7
:10036000DF93CF93CDB7DEB72E970FB6F894DEBFED
:100370000FBECDBF0D891E8986E08C831A83098349
:100380008FEF9FE79E838D839E01275E3F4FCE01B7
:1003900001966F89788DA9010E94DF012F81388530
:1003A000020F131FF80110822E960FB6F894DEBFCD
:1003B0000FBECDBFCF91DF911F910F9108952F9266
:1003C0003F924F925F926F927F928F929F92AF92E5
:1003D000BF92CF92DF92EF92FF920F931F93DF9322
:1003E000CF93CDB7DEB72B970FB6F894DEBF0FBE15
:1003F000CDBF3C012B015A01FC011782168283817B
:1004000081FD03C06FEF7FEFC6C19AE0892E1E0108
:100410000894211C311CF3012381F20123FD8591F5
:1004200023FF81912F01882309F4B2C1853239F469
:1004300023FD859123FF81912F01853229F490E0DE
:10044000B3010E94FB03E7CF982FFF24EE249924E9
:10045000FFE1FF15D0F09B3269F09C3228F4903216
:1004600059F0933291F40EC09D3249F0903369F403
:1004700041E024C052E0F52A84E0F82A28C098E040
:10048000F92A25C0E0E1FE2A22C0F7FC29C0892F05
:1004900080538A3070F4F6FE05C0989C902C11248D
:1004A000980E15C0E89CE02C1124E80EF0E2FF2A1B
:1004B0000EC09E3229F4F6FC6BC140E4F42A07C05A
:1004C0009C3619F450E8F52A02C0983649F4F20136
:1004D00023FD959123FF91912F01992309F0B8CF26
:1004E000892F8554833018F08052833038F444E0EB
:1004F00050E0A40EB51E5FE359830FC0933631F070
:10050000933779F0933509F056C020C0F50180810A
:10051000898342E050E0A40EB51E610101E010E0C5
:1005200012C0F501C080D180F6FC03C06FEF7FEFF1
:1005300002C0692D70E042E050E0A40EB51EC60175
:100540000E94F0038C015FE7F52214C0F501C08022
:10055000D180F6FC03C06FEF7FEF02C0692D70E021
:1005600042E050E0A40EB51EC6010E94E5038C01D6
:1005700050E8F52AF3FE07C01AC080E290E0B3010C
:100580000E94FB03EA948E2D90E008171907A8F348
:100590000EC0F601F7FC8591F7FE81916F0190E0A6
:1005A000B3010E94FB03E110EA94015010400115D1
:1005B000110579F7EAC0943611F0993669F5F7FE1E
:1005C00008C0F501208131814281538184E090E0AF
:1005D0000AC0F501808191819C01442737FD409537
:1005E000542F82E090E0A80EB91E9FE6F92257FF33
:1005F00009C050954095309521953F4F4F4F5F4F23
:10060000E0E8FE2ACA01B901A1012AE030E00E9417
:100610002704D82ED21840C0953729F41F2D1F7EED
:100620002AE030E01DC01F2D197F9F3661F0903702
:1006300020F4983509F0ACC00FC0903739F09837E6
:1006400009F0A6C004C028E030E00AC0106114FD23
:10065000146020E130E004C014FD166020E132E0B7
:1006600017FF08C0F501608171818281938144E0A8
:1006700050E008C0F50180819181BC0180E090E0EC
:1006800042E050E0A40EB51EA1010E942704D82E1E
:10069000D2188FE7F82EF122F6FE0BC05EEFF5229E
:1006A000D91438F4F4FE07C0F2FC05C08FEEF8222E
:1006B00002C01D2D01C0192DF4FE0DC0FE01ED0D6F
:1006C000F11D8081803319F499EEF92208C01F5F73
:1006D000F2FE05C003C08F2D867809F01F5F0F2D35
:1006E000F3FC14C0F0FE0FC01E1510F09D2C0BC0C3
:1006F0009D2C9E0C911A1E2D06C080E290E0B30145
:100700000E94FB031F5F1E15C0F304C01E1510F4EA
:10071000E11A01C0EE2404FF0FC080E390E0B301B2
:100720000E94FB0302FF1DC001FD03C088E790E0AB
:100730000EC088E590E00BC0802F867891F001FF15
:1007400002C08BE201C080E2F7FC8DE290E0B301D1
:100750000E94FB0306C080E390E0B3010E94FB030C
:100760009A94D914C0F3DA94F101ED0DF11D808152
:1007700090E0B3010E94FB03DD20A9F706C080E2F0
:1007800090E0B3010E94FB03EA94EE20C1F743CE50
:10079000F30166817781CB012B960FB6F894DEBF0B
:1007A0000FBECDBFCF91DF911F910F91FF90EF90C2
:1007B000DF90CF90BF90AF909F908F907F906F9081
:1007C0005F904F903F902F900895FC0105906150ED
:1007D00070400110D8F7809590958E0F9F1F089557
:1007E000FC016150704001900110D8F78095909500
:1007F0008E0F9F1F08950F931F93CF93DF938C014C
:10080000EB018B8181FF1BC082FF0DC02E813F81D8
:100810008C819D812817390764F4E881F98101935F
:10082000F983E88306C0E885F985802F0995892B2F
:1008300031F48E819F8101969F838E8302C00FEFDA
:100840001FEFC801DF91CF911F910F910895FA0119
:10085000AA27283051F1203181F1E8946F936E7FFF
:100860006E5F7F4F8F4F9F4FAF4FB1E03ED0B4E0F0
:100870003CD0670F781F891F9A1FA11D680F791F31
:100880008A1F911DA11D6A0F711D811D911DA11D42
:1008900020D009F468943F912AE0269F1124301952
:1008A000305D3193DEF6CF010895462F4770405DED
:1008B0004193B3E00FD0C9F7F6CF462F4F70405D9C
:1008C0004A3318F0495D31FD4052419302D0A9F7F7
:1008D000EACFB4E0A6959795879577956795BA95F1
:1008E000C9F700976105710508959B01AC010A2EB7
:1008F00006945795479537952795BA95C9F7620F8E
:0E090000731F841F951FA01D0895F894FFCF4C
:10090E0048756D3A2048756D696420736F696C0087
:10091E0048756D3A20496E20776174657200417595
:0E092E00746F20666C6F776572706F740000D6
:00000001FF
